S00D000041746D656C2E7372656324
S11370000C9434380C9451380C9451380C945138F5
S11370100C9451380C9451380C9451380C945138C8
S11370200C9451380C9451380C9451380C945138B8
S11370300C9451380C945D390C9451380C9451389B
S11370400C9451380C9451380C9496380C94513853
S11370500C9451380C9451380C9451380C94513888
S11370600C9451380C94513811241FBECFEFD8E042
S1137070DEBFCDBF11E0A0E0B1E0E6ECF6E702C070
S113708005900D92A038B107D9F722E0A0E8B1E04D
S113709001C01D92A333B207E1F70E94F1390C94A9
S11370A0613B0C940038E0ECF0E0908195FD04C065
S11370B0909189019923C9F38093C60008958BE1C7
S11370C00E9453388BE50E94533882E30E94533860
S11370D08AE40E9453388BE10E9453388BE50E9466
S11370E0533888E40E94533808951092C50087E607
S11370F08093C400E1ECF0E08081886980830E9481
S11371005F3808950E945F381092C5001092C40041
S11371101092C1000895CF93CFB7F89483E1809380
S113712001010E945338CFBFCF9108951F920F924F
S11371300FB60F9211242F933F934F935F936F9346
S11371407F938F939F93AF93BF93EF93FF9380911C
S1137150C600833121F481E08093890122C081310A
S113716019F4109289011DC0E0918C01F0E0E357FD
S1137170FE4F808380918C0190E001968F7190780E
S113718080938C0180918A018F5F80938A01809122
S11371908A01863130F080910101813111F40E941D
S11371A08B38FF91EF91BF91AF919F918F917F9118
S11371B06F915F914F913F912F910F900FBE0F9060
S11371C01F901895CF93CFB7F89481E18093010174
S11371D00E945338CFBFCF910895CF9380918A01F5
S11371E0882301F1E0918B01F0E0E357FE4FC08169
S11371F090918A01915090938A0120918B0130E003
S11372002F5F3F4F2F71307820938B0190918A012B
S11372109B3050F480910101833141F40E94E238A3
S11372208C2F05C080E003C08C2F01C08C2FCF9120
S113723008958DE00E9453388AE00E9453380895DF
S11372401F93CF93DF93EC018881882351F010E0E2
S11372500E9453381F5FFE01E10FF11D80818111EF
S1137260F7CFDF91CF911F910895F89485B781608E
S113727085BF15BE2FEF81EE94E0215080409040F1
S1137280E1F700C0000085B78270805D0E9453382A
S11372902FEF83ED90E3215080409040E1F700C050
S11372A000001092810010928500109284001092C8
S11372B06F000E9482380C9400001F920F920FB648
S11372C00F9211240E943539EEEAF1E08EE292E049
S11372D02FEF2193E817F907E1F708950F931F9310
S11372E0CF93DF930FB7F894F999FECF23E0FC0115
S11372F020935700E89507B600FCFDCFEB01C0587A
S1137300DF4FDB0111E0AC01461B570B6C91FA0116
S1137310EA0FFB1F11962C91119730E0322F222790
S1137320260F311D090110935700E8951124129678
S1137330AC17BD0759F725E0FC0120935700E895E9
S113734007B600FCFDCF81E180935700E8950FBF9D
S1137350DF91CF911F910F9108950E948B382FEFE9
S113736089EF90E0215080409040E1F700C0000098
S11373706EEA71E080918001909181010E946E39E2
S11373800E94E238109288010E94643908956623AD
S113739029F1482FE82FF92F80E090E0319120ED7A
S11373A0230F2A3078F02FEB230F263018F429EC22
S11373B0230F08C02FE9230F263018F429EA230FDE
S11373C001C0232F82959295907F9827807F9827DC
S11373D0822B2E2F241B261708F3089580E090E0BB
S11373E0089584B7877F84BFE0E6F0E08081877FDB
S11373F08083F89485B7982F916095BF826085BF8C
S11374000E94753882E091E00E9420390E94193967
S1137410E1E8F0E08081856080838CED9BE09093CF
S113742085008093840081E080936F0078940E94AB
S1137430ED388823E1F3803711F00E94353910923A
S11374406F0088E491E00E9420390E9419390E945B
S11374506439CEE2D2E00F2EF6E0DF2EF02D0F2EAF
S1137460F5E0FF2EF02D01E00F2EF7E0EF2EF02DCA
S113747013E00E94ED388823E1F3909100019330EA
S1137480E1F128F4913061F09230B1F0F2CF95300F
S113749009F497C008F46EC0963009F4DBC0E9CF54
S11374A08A3339F70E9453381092860110923002C1
S11374B082E080930001DDCFE091860191E09E0F90
S11374C090938601F0E0EE57FE4F80830E9453387C
S11374D080918601823069F662E082E891E00E9440
S11374E0C7398093320290913002890F8093300221
S11374F01092860110930001BCCFE091860191E0C7
S11375009E0F90938601F0E0EE57FE4F80830E9419
S1137510533880918601843009F0ABCF64E082E86F
S113752091E00E94C73990932F0280932E022091FC
S11375303002280F290F209330025C01AA0CAB2CD7
S1137540AA1CBB08B1948091800190918101A81676
S1137550B90651F00E94AD39B0928101A092800128
S113756088818F77809388011092860184E08093CC
S113757000017FCFE091860191E09E0F90938601F8
S1137580F0E0EE57FE4F80830E94533880918601CD
S1137590823009F06ECF62E082E891E00E94C73940
S11375A08093AD0190913002980F90933002109225
S11375B08601813011F48D2D01C08F2D809300013F
S11375C058CF9091AD01911154CFE091860191E093
S11375D09E0F90938601F0E0EE57FE4F80830E9449
S11375E0533880918601823009F043CFB0908801EE
S11375F062E082E891E00E94C739EB2DF0E0E255A9
S1137600FE4F808390913002890F809330028091E5
S113761087018F5F8093870181E08B0D80938801C0
S113762010928601803859F40E94AD39809180010E
S113763090918101019690938101809380019091B2
S1137640870180913202981314CF10928701D0924F
S113765000010FCFE091860191E09E0F9093860187
S1137660F0E0EE57FE4F80830E94533880918601EC
S1137670823009F0FECE62E082E891E00E94C739D0
S11376808093310290913002919590933002891742
S113769031F08FE591E00E942039E0920001809161
S11376A0AD01813039F48091880181110E94AD3996
S11376B00E94353910928601009300010E94193905
S10976C0D8CEF894FFCFC0
S11376C601113C703E202D3E20666C617368696E24
S11376D667206D6F6465207C203C616E79206F7431
S11376E6686572206B65793E202D3E20636F6E744B
S11376F6696E756520746F20746865206170706C9E
S113770669636174696F6E00506C656173652065A9
S11377166E746572202E68657820636F6465004315
S11377266865636B73756D206D69736D61746368E9
S11377362E20506C65617365205265736574210053
S90370008C
