:100000000C9405010C9422010C9422010C94220101
:100010000C9422010C9422010C9422010C942201D4
:100020000C9422010C9422010C9422010C942201C4
:100030000C9422010C9424010C9422010C942201B2
:100040000C9422010C9422010C9434020C94220191
:100050000C9422010C9422010C9422010C94220194
:100060000C9422010C94220107EC01DA01C301B3C4
:1000700001A401880170015468652054696D65729E
:100080002069732063757272656E746C7920727565
:100090006E6E696E672C20706C6561736520737479
:1000A0006F70207468652054696D657220746F20CC
:1000B000736574207374617274696E672076616C05
:1000C00075652100496E76616C696420496E7075B2
:1000D000742C20706C6561736520656E7465722088
:1000E00061206E756D626572206265747765656EFC
:1000F000203120616E642037004572726F722120BA
:10010000506C656173652063686F6F736520616310
:1001100074696F6E206265747765656E2031206149
:100120006E6420342E005374617274696E672056B9
:10013000616C75652028312D37293A200050726591
:1001400073732052455455524E20746F20676F20B0
:100150006261636B20746F204D61696E204D656E26
:100160007500496E7075742028312D34293A2000AD
:1001700034202D205072696E74205374617274693A
:100180006E672054696D650033202D20436F6E66C5
:100190006967757265205374617274696E67205463
:1001A000696D650032202D2053746F702054696D85
:1001B00065720031202D2053746172742054696D72
:1001C00065720043686F6F736520616E20616374B0
:1001D000696F6E2028312D3429002D2D2D2D2D2DC8
:1001E0002D2D2D2D2D2D2D2D2D2D2D0046616269AE
:1001F0002773202620466C6F27732046616E637933
:100200002054696D65723A00000011241FBECFEFC3
:10021000D8E0DEBFCDBF11E0A0E0B1E0E8E5FEE050
:1002200002C005900D92AE31B107D9F721E0AEE1E1
:10023000B1E001C01D92A839B207E1F70E94FC02AB
:100240000C942A070C9400001F920F920FB60F9285
:100250001124DF92EF92FF920F931F932F933F93FE
:100260004F935F936F937F938F939F93AF93BF93BE
:10027000EF93FF93CF93DF93CDB7DEB72597DEBF24
:10028000CDBF87E39FEF9093850080938400FE01AC
:10029000319685E0DF011D928A95E9F78F01DF0134
:1002A00080E090E02BE031E0289FF001299FF00DE5
:1002B0001124E05AFE4F40814423F9F047815085D4
:1002C00061857285453651056105710550F443819C
:1002D00054816581768147835087618772873C931B
:1002E0000CC047815085618572854456510961096A
:1002F000710947835087618772870196119685300F
:10030000910591F67894E12CF12C8BE0D82EF80130
:1003100081918F01882359F0DE9CF001DF9CF00D64
:100320001124E05AFE4F0180F281E02D0995FFEF84
:10033000EF1AFF0A85E0E816F10449F70F900F90D5
:100340000F900F900F90DF91CF91FF91EF91BF91A0
:10035000AF919F918F917F916F915F914F913F915D
:100360002F911F910F91FF90EF90DF900F900FBE94
:100370000F901F901895E1E8F0E080818260808303
:1003800087E39FEF9093850080938400EFE6F0E091
:100390008081816080830895EBE08E9FC0011124ED
:1003A000FC01E05AFE4F808181110AC043835483CF
:1003B0006583768347835087618772873283218381
:1003C00008952BE0829FC0011124FC01E05AFE4FEA
:1003D0008081811102C081E0808308952BE0829F9B
:1003E000C0011124FC01E05AFE4F10820895909143
:1003F0003D0181E0911180E008959091C00095FD4C
:1004000004C090913C019923C1F38093C6000895E4
:100410008BE10E94FD018BE50E94FD0182E30E94B9
:10042000FD018AE40E94FD018BE10E94FD018BE544
:100430000E94FD0188E40C94FD011092C50087E63E
:100440008093C400E1ECF0E08081886980830C94A3
:100450000802CF93CFB7F89483E1809301010E9403
:10046000FD01CFBFCF9108951F920F920FB60F924B
:1004700011242F933F934F935F936F937F938F93A9
:100480009F93AF93BF93EF93FF938091C600833107
:1004900021F481E080933C0122C0813119F4109253
:1004A0003C011DC0E0913F01F0E0E05CFE4F808325
:1004B00080913F0190E001968F71992780933F01D1
:1004C00080913D018F5F80933D0180913D01863198
:1004D00030F080910101813111F40E942902FF91D5
:1004E000EF91BF91AF919F918F917F916F915F91AC
:1004F0004F913F912F910F900FBE0F901F90189525
:10050000CF93CFB7F89481E1809301010E94FD0160
:10051000CFBFCF910895CF9380913D018823F1F013
:10052000E0913E01F0E0E05CFE4FC08180913D0132
:10053000815080933D0180913E0190E001968F7142
:10054000992780933E0180913D018B3030F480915A
:100550000101833111F40E9480028C2FCF91089504
:10056000CF938150873020F18DE00E94FD018AE019
:100570000E94FD01C0E0EC2FF0E0EC53FF4F8491AE
:10058000882321F00E94FD01CF5FF5CF8DE00E940E
:10059000FD018AE00E94FD01C0E0EC2FF0E0EA5D81
:1005A000FE4F8491882329F00E94FD01CF5FF5CF93
:1005B00081E0CF91089525B190919701892F90E026
:1005C0008095909587709927922F987F892B85B970
:1005D000089580910001882371F08091970188230C
:1005E00021F080919701815002C08091000080939A
:1005F00097010C94DB02089584B1876084B90E944E
:10060000BB010E941D0229EE32E040E452E46FE09B
:1006100070E080E00E94CC01789480E090E00E943D
:10062000DD06809397010E94DB0298E6C92E90E0D8
:10063000D92E02E011E0DEE12EE1E22E21E0F22EE1
:10064000F601649089E6A82E80E0B82EC0E06C1612
:10065000C9F0F50185909490712CF401E70DF11D1E
:100660008491882321F00E94FD017394F6CF8DE0E0
:100670000E94FD018AE00E94FD01CF5FF2E0AF0E13
:10068000B11CE5CFC0E0EC2FF0E0EE59FE4F8491B5
:10069000882321F00E94FD01CF5FF5CF0E948B02DD
:1006A000C82F8823D9F30E940802B12CEB2DF0E06B
:1006B000EE59FE4F8491882321F00E94FD01B394EE
:1006C000F5CF8C2F0E94FD018DE00E94FD018AE094
:1006D0000E94FD0180ED8C0F8230A1F178F4813011
:1006E00009F086C080E090E00E94DD0680939701CB
:1006F0000E94DB0280E00E94E10126C0833001F10C
:10070000843009F075C080E090E00E94DD06805DD5
:10071000282F082E000C330B3F938F931F930F93BA
:100720001F92DF93FF92EF920E941C048DB79EB739
:1007300008960FB6F8949EBF0FBE8DBFC0E04DC0A7
:10074000C0E004C010926001C0E064C0EC2FF0E093
:10075000EA5DFE4F8491882361F00E94FD01CF5F26
:10076000F5CF0E94FD0180ED8C0F0E94B002811137
:1007700006C00E948B02C82F8823D9F3F2CF809144
:100780006001882391F08DE00E94FD018AE00E94C3
:10079000FD01C0E0EC2FF0E0E958FF4F8491882381
:1007A000A9F00E94FD01CF5FF5CF6C2FCC0F770B26
:1007B0006053710980E090E00E94E50680E090E0DF
:1007C0000E94DD06809397010E94DB028DE00E946B
:1007D000FD018AE00E94FD01B7CFEC2FF0E0E25E60
:1007E000FE4F8081882391F30E94FD01CF5FF5CFFA
:1007F0008DE00E94FD018AE00E94FD01C0E0EC2F27
:10080000F0E0E750FF4F8491882301F30E94FD013F
:10081000CF5FF5CFEC2FF0E0E35CFE4F84918823AF
:1008200021F00E94FD01CF5FF5CF0E948B028D3039
:10083000E1F70E94080204CFAEE0B0E0E2E2F4E0AB
:100840000C9401070D891E898F89988D26E02C83D1
:100850001A83098397FF02C080E090E801979E8386
:100860008D83AE01455E5F4F698D7A8DCE01019615
:100870000E944C044D815E8157FD0AC02F8138854E
:10088000421753070CF49A01F801E20FF31F10828C
:100890002E96E4E00C941D07ABE0B0E0E2E5F4E056
:1008A0000C94F3066C017B018A01FC01178216820D
:1008B000838181FFCCC1CE0101963C01F601938179
:1008C000F70193FD859193FF81917F01882309F4BE
:1008D000BAC1853239F493FD859193FF81917F01EF
:1008E000853229F4B60190E00E944306E7CF912CAF
:1008F000212C312CFFE1F315D8F08B3279F038F44C
:10090000803279F08332A1F4232D20611DC08D3215
:1009100061F0803369F4232D216016C0832D82603D
:10092000382EE32DE4603E2E2AC0F32DF8601DC062
:1009300037FC2DC020ED280F2A3040F08E32B9F45C
:1009400036FC81C1232D2064322E19C036FE06C02C
:100950008AE0989E200D1124922E11C0EAE02E9E6E
:10096000200D1124222EF32DF0623F2E08C08C366C
:1009700021F4832D8068382E02C0883641F4F701B7
:1009800093FD859193FF81917F018111B3CF982FC2
:100990009F7D9554933028F40C5F1F4F9FE39983FC
:1009A0000DC0833631F0833771F0833509F059C0BB
:1009B00021C0F801808189830E5F1F4F88248394B2
:1009C000912C530113C02801F2E04F0E511CF80185
:1009D000A080B18036FE03C0692D70E002C06FEFC9
:1009E0007FEFC5010E9438064C018201F32DFF778D
:1009F0003F2E16C0280122E0420E511CF801A080B3
:100A0000B18036FE03C0692D70E002C06FEF7FEF4A
:100A1000C5010E942D064C01F32DF0683F2E820186
:100A200033FC1BC0822D90E088169906B0F4B60105
:100A300080E290E00E9443062A94F4CFF50137FC4F
:100A4000859137FE81915F01B60190E00E944306D7
:100A500021102A9421E0821A91088114910471F7DF
:100A6000E8C0843611F0893641F5F80137FE07C039
:100A700060817181828193810C5F1F4F08C060810A
:100A80007181072E000C880B990B0E5F1F4FF32D01
:100A9000FF763F2E97FF09C09095809570956195E0
:100AA0007F4F8F4F9F4FF0683F2E2AE030E0A30129
:100AB0000E947F06882E861845C0853731F4232D85
:100AC0002F7EB22E2AE030E025C0932D997FB92EDB
:100AD0008F36C1F018F4883579F0B5C0803719F039
:100AE000883721F0B0C0E92FE061BE2EB4FE0DC002
:100AF000FB2DF460BF2E09C034FE0AC0292F2660EA
:100B0000B22E06C028E030E005C020E130E002C08F
:100B100020E132E0F801B7FE07C060817181828177
:100B200093810C5F1F4F06C06081718180E090E06F
:100B30000E5F1F4FA3010E947F06882E8618FB2D93
:100B4000FF773F2E36FE0DC0232D2E7FA22E891457
:100B500058F434FE0BC032FC09C0832D8E7EA82EC3
:100B600005C0B82CA32C03C0B82C01C0B92CA4FE1E
:100B70000FC0FE01E80DF11D8081803321F49A2D14
:100B8000997EA92E09C0A2FE06C0B394B39404C0F6
:100B90008A2D867809F0B394A3FC11C0A0FE06C08C
:100BA000B21488F4280C922C9B180EC0B21460F476
:100BB000B60180E290E00E944306B394F7CFB214EE
:100BC00018F42B1802C0982C212CA4FE10C0B601DA
:100BD00080E390E00E944306A2FE17C0A1FC03C080
:100BE00088E790E002C088E590E0B6010CC08A2D4D
:100BF000867859F0A1FE02C08BE201C080E2A7FC1A
:100C00008DE2B60190E00E944306891438F4B601E3
:100C100080E390E00E9443069A94F7CF8A94F30110
:100C2000E80DF11D8081B60190E00E94430681101D
:100C3000F5CF222009F442CEB60180E290E00E9476
:100C400043062A94F6CFF6018681978102C08FEF82
:100C50009FEF2B96E2E10C940F07FC010590615089
:100C600070400110D8F7809590958E0F9F1F0895C2
:100C7000FC016150704001900110D8F7809590956B
:100C80008E0F9F1F08950F931F93CF93DF93FB0148
:100C9000238121FD03C08FEF9FEF2CC022FF16C0E0
:100CA00046815781248135814217530744F4A0813E
:100CB000B1819D012F5F3F4F318320838C9326812B
:100CC00037812F5F3F4F3783268314C08B01EC01A0
:100CD000FB010084F185E02D0995892BE1F6D8010F
:100CE00016968D919C911797019617969C938E93CB
:100CF0001697CE01DF91CF911F910F910895FA01C0
:100D0000AA27283051F1203181F1E8946F936E7F4A
:100D10006E5F7F4F8F4F9F4FAF4FB1E03ED0B4E03B
:100D20003CD0670F781F891F9A1FA11D680F791F7C
:100D30008A1F911DA11D6A0F711D811D911DA11D8D
:100D400020D009F468943F912AE0269F112430199D
:100D5000305D3193DEF6CF010895462F4770405D38
:100D60004193B3E00FD0C9F7F6CF462F4F70405DE7
:100D70004A3318F0495D31FD4052419302D0A9F742
:100D8000EACFB4E0A6959795879577956795BA953C
:100D9000C9F700976105710508959B01AC010A2E02
:100DA00006945795479537952795BA95C9F7620FD9
:100DB000731F841F951FA01D0895F999FECF92BD42
:100DC00081BDF89A992780B50895262FF999FECF0D
:100DD0001FBA92BD81BD20BD0FB6F894FA9AF99A58
:100DE0000FBE019608952F923F924F925F926F929D
:100DF0007F928F929F92AF92BF92CF92DF92EF92AB
:100E0000FF920F931F93CF93DF93CDB7DEB7CA1B2B
:100E1000DB0B0FB6F894DEBF0FBECDBF09942A8856
:100E2000398848885F846E847D848C849B84AA84FE
:100E3000B984C884DF80EE80FD800C811B81AA818B
:100E4000B981CE0FD11D0FB6F894DEBF0FBECDBF56
:080E5000ED010895F894FFCFB5
:100E580001115374617274696E672056616C75650F
:0E0E68002069732073657420746F2025630069
:00000001FF
