:100000000C9434000C9451000C9451000C94510049
:100010000C9451000C9451000C9451000C9451001C
:100020000C9451000C9451000C9451000C9451000C
:100030000C9451000C9451000C9451000C945100FC
:100040000C9451000C9451000C9483000C945100BA
:100050000C9451000C9451000C9451000C945100DC
:100060000C9451000C94510011241FBECFEFD8E026
:10007000DEBFCDBF11E0A0E0B1E0ECE8F3E002C0EC
:1000800005900D92AA30B107D9F721E0AAE0B1E0BE
:1000900001C01D92AE32B207E1F70E9470010C94CC
:1000A000C4010C940000E0910C01F0E0E25FFE4F0F
:1000B000808190910B01915090930B0120910C0144
:1000C00030E02F5F3F4F2F71332720930C01909129
:1000D0000B019B3020F490910001933109F00895B9
:1000E0002FB7F89491E19093000104C090910A0118
:1000F000911104C09091C00095FFF8CF91E19093C9
:10010000C6002FBF08951F920F920FB60F921124B1
:100110008F939F93EF93FF938091C6008331C9F132
:100120008131D9F1E0910D01F0E0E25FFE4F808373
:1001300080910D0190E001968F71992780930D01B8
:1001400080910B018F5F80930B0180910B018631B1
:1001500020F080910001813149F0FF91EF919F9152
:100160008F910F900FBE0F901F9018959FB7F89426
:1001700083E18093000104C080910A01811104C0D1
:100180008091C00085FFF8CF83E18093C6009FBFB8
:10019000E4CF81E080930A01E0CF10920A01DDCF25
:1001A0001092C50087E68093C400E1ECF0E0808106
:1001B00088698083089520910B0181E090E02223DB
:1001C00011F080E090E008959091C00095FD04C08A
:1001D00090910A019923C1F38093C60008958091FC
:1001E0000B0181110C94530080E008959FB7F8949F
:1001F00083E18093000104C080910A01811104C051
:100200008091C00085FFF8CF83E18093C6009FBF37
:1002100008959FB7F89481E18093000104C0809114
:100220000A01811104C08091C00085FFF8CF81E1EF
:100230008093C6009FBF08958091C00085FD04C0D3
:1002400080910A018823C1F38BE18093C60004C02A
:1002500080910A01811104C08091C00085FFF8CF10
:100260008BE58093C60004C080910A01811104C00F
:100270008091C00085FFF8CF82E38093C60004C060
:1002800080910A01811104C08091C00085FFF8CFE0
:100290008AE48093C60004C080910A01811104C0E1
:1002A0008091C00085FFF8CF8BE18093C60004C029
:1002B00080910A01811104C08091C00085FFF8CFB0
:1002C0008BE58093C60004C080910A01811104C0AF
:1002D0008091C00085FFF8CF88E48093C600089520
:1002E000CF93DF93CDB7DEB728970FB6F894DEBF74
:1002F0000FBECDBF1092C50087E68093C4008091E9
:10030000C10088698093C100789488E0E1E0F1E061
:10031000DE01119601900D928A95E1F70E941C0171
:100320008981882381F0FE01329604C090910A01F0
:10033000911104C09091C00095FFF8CF8093C60042
:1003400081918111F7CF80910B018823E1F30E9405
:100350005300811105C0F7CF90910A01911104C09B
:100360009091C00095FFF8CF8093C6002FEF81EEEB
:1003700094E0215080409040E1F700C0000080915F
:0C0380000B01882301F3E3CFF894FFCFBA
:0A038C0011486974206D653A000005
:00000001FF
