:100000000C9434000C943E000C943E000C943E0082
:100010000C943E000C943E000C943E000C943E0068
:100020000C943E000C943E000C943E000C943E0058
:100030000C943E000C9440000C943E000C943E0046
:100040000C943E000C943E000C943E000C943E0038
:100050000C943E000C943E000C943E000C943E0028
:100060000C943E000C943E0011241FBECFEFD8E04C
:10007000DEBFCDBF0E9458000C946D000C940000B0
:100080001F920F920FB60F9211248F939F9395B1E9
:1000900082E0892785B980E69AEE90938500809367
:1000A00084009F918F910F900FBE0F901F90189515
:1000B000579A84B1836084B92998809181008560C2
:1000C0008093810080E69AEE90938500809384006F
:0E00D00081E080936F007894FFCFF894FFCF0B
:00000001FF
