:100000000C943B000C9458000C9458000C9458002D
:100010000C9458000C9458000C9458000C94580000
:100020000C9458000C9458000C9453010C945800F4
:100030000C9458000C9458000C9458000C945800E0
:100040000C9458000C9458000C94D7000C94580051
:100050000C9458000C9458000C9458000C945800C0
:100060000C9458000C9458004475747920437963BB
:100070006C653A20000011241FBECFEFD8E0DEBF30
:10008000CDBF11E0A0E0B1E0EAE0FBE002C00590E6
:100090000D92AA30B107D9F721E0AAE0B1E001C082
:1000A0001D92A233B207E1F70E948E010C948305E2
:1000B0000C940000EAE7F0E0808180688083808112
:1000C0008760808308959C01FB0190917C00907F64
:1000D00090937C0090917C00922B90937C00809177
:1000E0007C002830310511F4806C06C08F77809336
:1000F0007C0080917C00806480937C008FE19EE492
:100100000197F1F700C0000080917A00806480932D
:100110007A0080917A0086FDFCCF11821082809156
:10012000780090E09183808320917900922B9183D5
:100130008083089590910F0181E0911180E00895EE
:100140009091C00095FD04C090910E019923C1F3D8
:100150008093C60008958BE10E94A0008BE50E9469
:10016000A00082E30E94A0008AE40E94A0008BE12C
:100170000E94A0008BE50E94A00088E40C94A000DF
:100180001092C50087E68093C400E1ECF0E0808126
:10019000886980830C94AB00CF93CFB7F89483E148
:1001A000809302010E94A000CFBFCF9108951F92BB
:1001B0000F920FB60F9211242F933F934F935F939B
:1001C0006F937F938F939F93AF93BF93EF93FF931F
:1001D0008091C600833121F481E080930E0122C01A
:1001E000813119F410920E011DC0E0911101F0E06F
:1001F000EE5EFE4F80838091110190E001968F7139
:1002000099278093110180910F018F5F80930F01D7
:1002100080910F01863130F080910201813111F41B
:100220000E94CC00FF91EF91BF91AF919F918F9170
:100230007F916F915F914F913F912F910F900FBEE2
:100240000F901F901895CF93CFB7F89481E18093CA
:1002500002010E94A000CFBFCF910895CF9380915B
:100260000F018823F1F0E0911001F0E0EE5EFE4F07
:10027000C08180910F01815080930F018091100106
:1002800090E001968F7199278093100180910F0162
:100290008B3030F480910201833111F40E942301EC
:1002A0008C2FCF9108951F920F920FB60F921124A9
:1002B0002F933F938F939F932091860030918700D7
:1002C0008091000190910101019779F48091810062
:1002D0008F7B80938100B59830930B0120930A01A6
:1002E000109201011092000110C080918100806481
:1002F00080938100B59830930D0120930C0181E02B
:1003000090E090930101809300019F918F913F9124
:100310002F910F900FBE0F901F901895CF93DF93E2
:10032000CDB7DEB766970FB6F894DEBF0FBECDBF70
:100330001E8A1D8A0E94C0000E945A0016BC8AEFC5
:1003400087BD8DE788BD84B5806384BD559A84B52B
:10035000836084BD85B58B6085BD80918100836895
:100360008093810080916F00806280936F00789409
:100370003AEF832E912CA12CB12C212C312C210170
:10038000439456E6652E64E1E62E8E010F5F1F4F03
:1003900073E0C72E71E0D72EBE016B5E7F4F82E007
:1003A00090E00E9463008D899E8996958795969529
:1003B00087959E8B8D8B88BD0E94AB00F894209111
:1003C0000C0130910D0180910A0190910B012817C9
:1003D0003907D0F480910A0190910B0120910C0112
:1003E00030910D01821B930BA2019101281B390B47
:1003F00041095109A4E6B0E00E948002A5019401E0
:100400000E944F02762C14C020910C0130910D01F6
:1004100080910A0190910B01281B390BA4E6B0E0F2
:100420000E947102A50194010E944F0284E6782E79
:10043000721A7894F8012E2D11922A95E9F7F12C71
:10044000EF2DF0E0E859FF4F8491882321F00E94BE
:10045000A000F394F5CF1F927F92DF92CF921F926C
:10046000EF921F930F930E948B020FB6F894DEBF9A
:100470000FBECDBFF12CF801EF0DF11D8081882357
:1004800021F00E94A000F394F6CF9FEFE9E6F8E197
:100490009150E040F040E1F700C000007DCFA1E2C4
:1004A0001A2EAA1BBB1BFD010DC0AA1FBB1FEE1FEE
:1004B000FF1FA217B307E407F50720F0A21BB30B39
:1004C000E40BF50B661F771F881F991F1A9469F7B5
:1004D00060957095809590959B01AC01BD01CF0111
:1004E0000895A29FB001B39FC001A39F700D811D0D
:1004F0001124911DB29F700D811D1124911D08952D
:100500000E947102A59F900DB49F900DA49F800D35
:10051000911D11240895AEE0B0E0E1E9F2E00C9401
:100520005A050D891E898F89988D26E02C831A83A0
:10053000098397FF02C080E090E801979E838D8336
:10054000AE01455E5F4F698D7A8DCE0101960E94A6
:10055000BB024D815E8157FD0AC02F81388542174D
:1005600053070CF49A01F801E20FF31F10822E9644
:10057000E4E00C947605ABE0B0E0E1ECF2E00C9442
:100580004C056C017B018A01FC0117821682838174
:1005900081FFCCC1CE0101963C01F6019381F701A8
:1005A00093FD859193FF81917F01882309F4BAC15E
:1005B000853239F493FD859193FF81917F018532D6
:1005C00029F4B60190E00E94B204E7CF912C212CCF
:1005D000312CFFE1F315D8F08B3279F038F480320A
:1005E00079F08332A1F4232D20611DC08D3261F09A
:1005F000803369F4232D216016C0832D8260382E4C
:10060000E32DE4603E2E2AC0F32DF8601DC037FCB8
:100610002DC020ED280F2A3040F08E32B9F436FC80
:1006200081C1232D2064322E19C036FE06C08AE017
:10063000989E200D1124922E11C0EAE02E9E200DCE
:100640001124222EF32DF0623F2E08C08C3621F4A7
:10065000832D8068382E02C0883641F4F70193FD5F
:10066000859193FF81917F018111B3CF982F9F7D59
:100670009554933028F40C5F1F4F9FE399830DC06E
:10068000833631F0833771F0833509F059C021C0CA
:10069000F801808189830E5F1F4F88248394912CF9
:1006A000530113C02801F2E04F0E511CF801A08045
:1006B000B18036FE03C0692D70E002C06FEF7FEF9E
:1006C000C5010E94A7044C018201F32DFF773F2E44
:1006D00016C0280122E0420E511CF801A080B18012
:1006E00036FE03C0692D70E002C06FEF7FEFC501D9
:1006F0000E949C044C01F32DF0683F2E820133FCD4
:100700001BC0822D90E088169906B0F4B60180E2F5
:1007100090E00E94B2042A94F4CFF50137FC859151
:1007200037FE81915F01B60190E00E94B204211072
:100730002A9421E0821A91088114910471F7E8C08B
:10074000843611F0893641F5F80137FE07C0608123
:100750007181828193810C5F1F4F08C0608171811C
:10076000072E000C880B990B0E5F1F4FF32DFF76A1
:100770003F2E97FF09C090958095709561957F4FAA
:100780008F4F9F4FF0683F2E2AE030E0A3010E9478
:10079000EE04882E861845C0853731F4232D2F7E30
:1007A000B22E2AE030E025C0932D997FB92E8F36E6
:1007B000C1F018F4883579F0B5C0803719F0883762
:1007C00021F0B0C0E92FE061BE2EB4FE0DC0FB2DBC
:1007D000F460BF2E09C034FE0AC0292F2660B22E55
:1007E00006C028E030E005C020E130E002C020E192
:1007F00032E0F801B7FE07C0608171818281938188
:100800000C5F1F4F06C06081718180E090E00E5F39
:100810001F4FA3010E94EE04882E8618FB2DFF7740
:100820003F2E36FE0DC0232D2E7FA22E891458F4A4
:1008300034FE0BC032FC09C0832D8E7EA82E05C06D
:10084000B82CA32C03C0B82C01C0B92CA4FE0FC037
:10085000FE01E80DF11D8081803321F49A2D997EEF
:10086000A92E09C0A2FE06C0B394B39404C08A2D79
:10087000867809F0B394A3FC11C0A0FE06C0B214A0
:1008800088F4280C922C9B180EC0B21460F4B601A8
:1008900080E290E00E94B204B394F7CFB21418F44F
:1008A0002B1802C0982C212CA4FE10C0B60180E3A6
:1008B00090E00E94B204A2FE17C0A1FC03C088E72A
:1008C00090E002C088E590E0B6010CC08A2D8678E1
:1008D00059F0A1FE02C08BE201C080E2A7FC8DE2CC
:1008E000B60190E00E94B204891438F4B60180E3A6
:1008F00090E00E94B2049A94F7CF8A94F301E80D35
:10090000F11D8081B60190E00E94B2048110F5CF04
:10091000222009F442CEB60180E290E00E94B204A7
:100920002A94F6CFF6018681978102C08FEF9FEF60
:100930002B96E2E10C946805FC0105906150704033
:100940000110D8F7809590958E0F9F1F0895FC0198
:100950006150704001900110D8F7809590958E0FEE
:100960009F1F08950F931F93CF93DF93FB01238164
:1009700021FD03C08FEF9FEF2CC022FF16C04681E0
:100980005781248135814217530744F4A081B181F6
:100990009D012F5F3F4F318320838C9326813781C8
:1009A0002F5F3F4F3783268314C08B01EC01FB017F
:1009B0000084F185E02D0995892BE1F6D801169682
:1009C0008D919C911797019617969C938E931697ED
:1009D000CE01DF91CF911F910F910895FA01AA27BF
:1009E000283051F1203181F1E8946F936E7F6E5F72
:1009F0007F4F8F4F9F4FAF4FB1E03ED0B4E03CD020
:100A0000670F781F891F9A1FA11D680F791F8A1F02
:100A1000911DA11D6A0F711D811D911DA11D20D069
:100A200009F468943F912AE0269F11243019305D23
:100A30003193DEF6CF010895462F4770405D419314
:100A4000B3E00FD0C9F7F6CF462F4F70405D4A3361
:100A500018F0495D31FD4052419302D0A9F7EACF29
:100A6000B4E0A6959795879577956795BA95C9F758
:100A700000976105710508959B01AC010A2E06944B
:100A80005795479537952795BA95C9F7620F731F04
:100A9000841F951FA01D08952F923F924F925F9241
:100AA0006F927F928F929F92AF92BF92CF92DF927E
:100AB000EF92FF920F931F93CF93DF93CDB7DEB7E3
:100AC000CA1BDB0B0FB6F894DEBF0FBECDBF099477
:100AD0002A88398848885F846E847D848C849B84CE
:100AE000AA84B984C884DF80EE80FD800C811B81DC
:100AF000AA81B981CE0FD11D0FB6F894DEBF0FBE0B
:0A0B0000CDBFED010895F894FFCF7A
:0A0B0A0001001125642025250000DC
:00000001FF
