:107000000C9434380C9451380C9451380C945138F9
:107010000C9451380C9451380C9451380C945138CC
:107020000C9451380C9451380C9451380C945138BC
:107030000C9451380C9462390C9451380C9451389A
:107040000C9451380C9451380C9490380C9451385D
:107050000C9451380C9451380C9451380C9451388C
:107060000C9451380C94513811241FBECFEFD8E046
:10707000DEBFCDBF11E0A0E0B1E0E8EDF6E702C071
:1070800005900D92AC3DB107D9F722E0ACEDB1E02F
:1070900001C01D92A039B207E1F70E940A3A0C9490
:1070A0006A3B0C9400389091E60181E0911180E0F8
:1070B00008959091C00095FD04C09091E501992339
:1070C000C1F38093C60008958BE10E9459388BE587
:1070D0000E94593882E30E9459388AE40E94593844
:1070E0008BE10E9459388BE50E94593888E40C9452
:1070F00059381092C50087E68093C400E1ECF0E0B7
:107100008081886980830C946438CF93CFB7F894DA
:1071100083E1809301010E945938CFBFCF91089538
:107120001F920F920FB60F9211242F933F934F93FC
:107130005F936F937F938F939F93AF93BF93EF93DF
:10714000FF938091C600833121F481E08093E501B3
:1071500022C0813119F41092E5011DC0E091E801CF
:10716000F0E0E751FE4F80838091E80190E00196C6
:107170008F7199278093E8018091E6018F5F80935A
:10718000E6018091E601863130F080910101813184
:1071900011F40E948538FF91EF91BF91AF919F91BB
:1071A0008F917F916F915F914F913F912F910F90B0
:1071B0000FBE0F901F901895CF93CFB7F89481E131
:1071C000809301010E945938CFBFCF910895CF938A
:1071D0008091E6018823F1F0E091E701F0E0E751CA
:1071E000FE4FC0818091E60181508093E60180913D
:1071F000E70190E001968F7199278093E7018091D4
:10720000E6018B3030F480910101833111F40E944A
:10721000DC388C2FCF9108958DE00E9459388AE098
:107220000C9459380F931F93CF938C01C0E0F80151
:10723000EC0FF11D8081882321F00E945938CF5F27
:10724000F6CFCF911F910F9108950E94643882E08C
:1072500091E00E9412392FEF89E698E12150804099
:107260009040E1F700C000000E9464382FEF81EEEB
:1072700094E0215080409040E1F700C0000010925F
:10728000C5001092C4001092C60080E28093C00036
:107290001092C10086E08093C20008951092810090
:1072A00081E085BF15BEF89405B601FE289A1092BC
:1072B00085001092840010926F000E942539E0E052
:1072C000F0E009941F920F920FB60F9211242F93A2
:1072D0003F934F935F936F937F938F939F93AF935E
:1072E000BF93EF93FF930E944E39FF91EF91BF91AF
:1072F000AF919F918F917F916F915F914F913F914E
:107300002F910F900FBE0F901F901895EBE0F2E0B9
:107310008FEF92E0EB38F90711F08193FACF0895DF
:10732000CF93DF939695982F8827979587955FB78A
:10733000F894F999FECF23E0FC0120935700E895DB
:1073400007B600FCFDCFDB0140E061E0EC01CA1BA9
:10735000DB0B7C91FE01EA0FFB1F11962C9111971C
:1073600030E0322F2227270F311D0901609357008B
:10737000E89511244E5F1296403859F725E0FC013C
:1073800020935700E89507B600FCFDCF81E180937C
:107390005700E8955FBFDF91CF9108950E9485382F
:1073A0002FEF89EF90E0215080409040E1F700C03E
:1073B00000006BE072E08091DC019091DD010E94A1
:1073C00090391092E4010E9486390C94DC38482FE1
:1073D000FC0120E030E08E2F841B8617C8F49191C9
:1073E00080ED890F8A3060F08FEB890F863010F4C2
:1073F000975307C08FE9890F863018F4975501C05D
:10740000982F84E0220F331F8A95E1F7292BE3CFD1
:10741000C9010895F89485B7982F916095BF82604F
:1074200085BF0E94793885E191E00E9412390E945F
:107430000C398DE591E00E9412390E940C3980913F
:1074400081008560809381008CED9BE090938500A6
:107450008093840081E080936F0078940E94E738E5
:107460008823E1F3803711F00E944E391092810099
:1074700083EA91E00E9412390E940C390E948639F9
:1074800006E011E097E0F92E23E0E22E0E94E738B3
:107490008823E1F3909100019330D1F128F49130E9
:1074A00061F09230A1F0F2CF953009F494C008F465
:1074B0006DC0963009F4D7C0E9CF8A3339F70E94FE
:1074C00059381092E20110928D0282E05CC0E09186
:1074D000E20191E09E0F9093E201F0E0E252FE4F54
:1074E00080830E9459388091E201823079F662E00F
:1074F0008EED91E00E94E73980938F0290918D028A
:10750000890F80938D021092E201E0920001BECFBC
:10751000E091E20191E09E0F9093E201F0E0E252EF
:10752000FE4F80830E9459388091E201843009F037
:10753000ADCF64E08EED91E00E94E73990938C022C
:1075400080938B0220918D02280F290F20938D02AA
:10755000EC01CC0FCD2FCC1FDD0BD1958091DC0140
:107560009091DD01C817D90759F00E94CE39D09308
:10757000DD01C093DC0180918B028F778093E40161
:107580001092E20184E08093000180CFE091E2015B
:1075900091E09E0F9093E201F0E0E252FE4F808373
:1075A0000E9459388091E201823009F06FCF62E089
:1075B0008EED91E00E94E7398093090290918D024F
:1075C000980F90938D021092E201813011F085E0C6
:1075D000DACF86E0D8CF90910902911157CFE09190
:1075E000E20191E09E0F9093E201F0E0E252FE4F43
:1075F00080830E9459388091E201823009F046CFA1
:10760000C091E40162E08EED91E00E94E739EC2F39
:10761000F0E0E55FFD4F808390918D02890F8093AC
:107620008D028091E3018F5F8093E301CF5FC09370
:10763000E4011092E201C03859F40E94CE398091E1
:10764000DC019091DD0101969093DD018093DC01D6
:107650009091E30180918F02981318CF1092E3016B
:107660000093000113CFE091E20191E09E0F90930F
:10767000E201F0E0E252FE4F80830E94593880918F
:10768000E201823009F002CF62E08EED91E00E94CB
:10769000E73980938E0290918D02919590938D029F
:1076A000891731F08AEB91E00E941239F0920001C3
:1076B00080910902813039F48091E40181110E94A6
:1076C000CE390E944E391092E201109300010E94BF
:0876D0000C39DCCEF894FFCF69
:1076D8000111426F6F74696E672070726F67726113
:1076E8006D2E2E2E0041726475696E6F2050726F78
:1076F8004D696E69426F6F746C6F61646572206268
:10770800792046616269616E204265636B6572200B
:107718002620466C6F7269616E2052656D626572D3
:1077280067657220E293922032303234003C703E1A
:10773800202D3E20666C617368696E67206D6F64EA
:1077480065207C203C616E79206F74686572206BBF
:1077580065793E202D3E20636F6E74696E756520D5
:10776800746F20746865206170706C6963617469F6
:107778006F6E00506C6561736520656E746572206C
:107788002E68657820636F646500436865636B7372
:10779800756D206D69736D617463682E20506C651A
:0C77A80061736520526573657421000058
:040000030000700089
:00000001FF
