:107000000C9434380C9451380C9451380C945138F9
:107010000C9451380C9451380C9451380C945138CC
:107020000C9451380C9451380C9451380C945138BC
:107030000C9451380C945E390C9451380C9451389E
:107040000C9451380C9451380C9490380C9451385D
:107050000C9451380C9451380C9451380C9451388C
:107060000C9451380C94513811241FBECFEFD8E046
:10707000DEBFCDBF11E0A0E0B1E0E8E9F6E702C075
:1070800005900D92A83CB107D9F722E0A8ECB1E039
:1070900001C01D92AB37B207E1F70E94E9390C94A9
:1070A0004A3B0C9400389091D20181E0911180E02C
:1070B00008959091C00095FD04C09091D10199234D
:1070C000C1F38093C60008958BE10E9459388BE587
:1070D0000E94593882E30E9459388AE40E94593844
:1070E0008BE10E9459388BE50E94593888E40C9452
:1070F00059381092C50087E68093C400E1ECF0E0B7
:107100008081886980830C946438CF93CFB7F894DA
:1071100083E1809301010E945938CFBFCF91089538
:107120001F920F920FB60F9211242F933F934F93FC
:107130005F936F937F938F939F93AF93BF93EF93DF
:10714000FF938091C600833121F481E08093D101C7
:1071500022C0813119F41092D1011DC0E091D401F7
:10716000F0E0EB52FE4F80838091D40190E00196D5
:107170008F7199278093D4018091D2018F5F809382
:10718000D2018091D201863130F0809101018131AC
:1071900011F40E948538FF91EF91BF91AF919F91BB
:1071A0008F917F916F915F914F913F912F910F90B0
:1071B0000FBE0F901F901895CF93CFB7F89481E131
:1071C000809301010E945938CFBFCF910895CF938A
:1071D0008091D2018823F1F0E091D301F0E0EB52ED
:1071E000FE4FC0818091D20181508093D201809165
:1071F000D30190E001968F7199278093D3018091FC
:10720000D2018B3030F480910101833111F40E945E
:10721000DC388C2FCF9108958DE00E9459388AE098
:107220000C9459380F931F93CF938C01C0E0F80151
:10723000EC0FF11D8081882321F00E945938CF5F27
:10724000F6CFCF911F910F9108950E94643882E08C
:1072500091E00E9412392FEF89E698E12150804099
:107260009040E1F700C000000E9464382FEF81EEEB
:1072700094E0215080409040E1F700C0000010925F
:10728000C5001092C4001092C60080E28093C00036
:107290001092C10086E08093C20008951092810090
:1072A000109285001092840010926F0081E085BFDB
:1072B00015BEF8940E9425390C9400001F920F927D
:1072C0000FB60F9211240E944E39E6EFF1E08FEFD6
:1072D00092E0E637F90711F08193FACF0895CF9342
:1072E000DF939695982F8827979587955FB7F894A1
:1072F000F999FECF23E0FC0120935700E89507B6EB
:1073000000FCFDCFDB0140E061E0EC01CA1BDB0BC0
:107310007C91FE01EA0FFB1F11962C91119730E032
:10732000322F2227270F311D090160935700E8955E
:1073300011244E5F1296403859F725E0FC01209346
:107340005700E89507B600FCFDCF81E18093570018
:10735000E8955FBFDF91CF9108950E9485382FEFA8
:1073600089EF90E0215080409040E1F700C000009C
:1073700066EF71E08091C8019091C9010E946F3958
:107380001092D0010E9465390C94DC38482FFC0122
:1073900020E030E08E2F841B8617C8F4919180ED99
:1073A000890F8A3060F08FEB890F863010F4975385
:1073B00007C08FE9890F863018F4975501C0982FC0
:1073C00084E0220F331F8A95E1F7292BE3CFC9010F
:1073D0000895F89485B7982F916095BF826085BF16
:1073E0000E94793885E191E00E9412390E940C399F
:1073F00086E591E00E9412390E940C39809181004B
:107400008560809381008CED9BE090938500809354
:10741000840081E080936F0078940E94E73888238D
:10742000E1F3803711F00E944E391092810080E91B
:1074300091E00E9412390E940C390E94653906E0E1
:1074400011E097E0F92E23E0E22E0E94E73888232E
:10745000E1F3909100019330D1F128F4913061F083
:107460009230A1F0F2CF953009F494C008F46DC0C9
:10747000963009F4D7C0E9CF8A3339F70E945938DA
:107480001092CE011092780282E05CC0E091CE01B1
:1074900091E09E0F9093CE01F0E0E653FE4F808383
:1074A0000E9459388091CE01823079F662E08AECF0
:1074B00091E00E94C63980937A0290917802890FF8
:1074C000809378021092CE01E0920001BECFE0914D
:1074D000CE0191E09E0F9093CE01F0E0E653FE4F77
:1074E00080830E9459388091CE01843009F0ADCF5D
:1074F00064E08AEC91E00E94C63990937702809311
:10750000760220917802280F290F20937802EC014F
:10751000CC0FCD2FCC1FDD0BD1958091C801909160
:10752000C901C817D90759F00E94AD39D093C901D4
:10753000C093C801809176028F778093D00110921A
:10754000CE0184E08093000180CFE091CE0191E0F4
:107550009E0F9093CE01F0E0E653FE4F80830E9491
:1075600059388091CE01823009F06FCF62E08AEC09
:1075700091E00E94C6398093F50190917802980FAE
:10758000909378021092CE01813011F085E0DACF2D
:1075900086E0D8CF9091F501911157CFE091CE01BF
:1075A00091E09E0F9093CE01F0E0E653FE4F808372
:1075B0000E9459388091CE01823009F046CFC091A7
:1075C000D00162E08AEC91E00E94C639EC2FF0E035
:1075D000EA50FE4F808390917802890F8093780261
:1075E0008091CF018F5F8093CF01CF5FC093D00197
:1075F0001092CE01C03859F40E94AD398091C80173
:107600009091C90101969093C9018093C80190910E
:10761000CF0180917A02981318CF1092CF01009376
:10762000000113CFE091CE0191E09E0F9093CE0127
:10763000F0E0E653FE4F80830E9459388091CE01DE
:10764000823009F002CF62E08AEC91E00E94C639F4
:10765000809379029091780291959093780289179E
:1076600031F087EA91E00E941239F0920001809196
:10767000F501813041F48091D001882309F4D3CE03
:107680000E94AD39D0CE1092CE01109300010E941D
:087690000C39DBCEF894FFCFAA
:107698000111426F6F74696E672070726F67726153
:1076A8006D2E2E2E0041726475696E6F2050726FB8
:1076B800204D696E6920426F6F746C6F61646572EA
:1076C8002062792046616269616E204265636B655C
:1076D80072202620466C6F7269616E2052656D6259
:1076E8006572676572003C703E202D3E20666C61B5
:1076F8007368696E67206D6F6465207C203C616EDD
:1077080079206B65793E202D3E2072657475726E06
:1077180020746F206170706C69636174696F6E00AA
:10772800506C6561736520656E746572202E68659E
:107738007820636F646500436865636B73756D20BB
:107748006D69736D617463682E20506C6561736533
:087758002052657365742100E5
:040000030000700089
:00000001FF
