:100000000C9434000C9451000C9451000C94510049
:100010000C9451000C9451000C9451000C9451001C
:100020000C9451000C9451000C9451000C9451000C
:100030000C9451000C9440010C9451000C9451000C
:100040000C9451000C9451000C9499000C945100A4
:100050000C9451000C9451000C9451000C945100DC
:100060000C9451000C94510011241FBECFEFD8E026
:10007000DEBFCDBF11E0A0E0B1E0E6E9FCE002C0E8
:1000800005900D92A039B107D9F721E0A0E9B1E0C0
:1000900001C01D92A03DB207E1F70E94C4010C947B
:1000A00049060C9400009091960181E0911180E046
:1000B00008959091C00095FD04C0909195019923F9
:1000C000C1F38093C60008958BE10E9459008BE52F
:1000D0000E94590082E30E9459008AE40E9459005C
:1000E0008BE10E9459008BE50E94590088E40C9432
:1000F00059001092C50087E68093C400E1ECF0E05F
:100100008081886980830C9464000E94640010924E
:10011000C5001092C4001092C1000895CF93CFB7CC
:10012000F89483E1809301010E945900CFBFCF91E1
:1001300008951F920F920FB60F9211242F933F93A1
:100140004F935F936F937F938F939F93AF93BF93DF
:10015000EF93FF938091C600833121F481E0809377
:10016000950122C0813119F4109295011DC0E091D2
:100170009801F0E0E756FE4F80838091980190E06F
:1001800001968F71992780939801809196018F5FD6
:100190008093960180919601863130F08091010123
:1001A000813111F40E948E00FF91EF91BF91AF91C8
:1001B0009F918F917F916F915F914F913F912F917F
:1001C0000F900FBE0F901F901895CF93CFB7F89454
:1001D00081E1809301010E945900CFBFCF91089522
:1001E000CF93809196018823F1F0E0919701F0E0A0
:1001F000E756FE4FC0818091960181508093960111
:100200008091970190E001968F71992780939701D3
:10021000809196018B3030F480910101833111F48B
:100220000E94E5008C2FCF9108958DE00E94590027
:100230008AE00C9459000F931F93CF938C01C0E078
:10024000F801EC0FF11D8081882321F00E945900F4
:10025000CF5FF6CFCF911F910F9108952FEF81EED1
:1002600094E0215080409040E1F700C000001092DF
:100270008100109285001092840010926F00089502
:100280001F920F920FB60F9211242F933F934F930B
:100290005F936F937F938F939F93AF93BF93EF93EE
:1002A000FF930E942E01FF91EF91BF91AF919F911B
:1002B0008F917F916F915F914F913F912F910F900F
:1002C0000FBE0F901F9018951F93CF93DF934FB7DA
:1002D000F894F999FECF23E0FC0120935700E895AC
:1002E00007B600FCFDCFEB01C058DF4FDB0151E04A
:1002F000BC016A1B7B0B1C91FB01EA0FFB1F1196D3
:100300002C91119730E0322F2227210F311D090146
:1003100050935700E89511241296CA17DB0759F736
:1003200025E0FC0120935700E89507B600FCFDCFBF
:1003300081E180935700E8954FBFDF91CF911F91E6
:100340000895482FFC0120E030E08E2F841B861793
:10035000C8F4919180ED890F8A3060F08FEB890F9E
:10036000863010F4975307C08FE9890F863018F450
:10037000975501C0982F84E0220F331F8A95E1F72B
:10038000292BE3CFC9010895CF93DF93CDB7DEB713
:10039000C456D1090FB6F894DEBF0FBECDBFF89496
:1003A0000E94790082E091E00E941B010E941501E9
:1003B000809181008560809381008CED9BE090931B
:1003C00085008093840081E080936F0078940E9480
:1003D000F0008823E1F3803711F00E942E01109283
:1003E0006F0088E491E00E941B010E9415018DE6D8
:1003F000C82E81E0D82E94E6792E8E010F5F1F4F14
:1004000029E7A22E21E0B22E55245A9436E0432E3D
:1004100044E8E42E41E0F42E662463945FE5852EE3
:1004200051E0952E63E0362E0E94F0008823E1F320
:1004300090910001933009F44CC028F4913061F0A0
:100440009230A1F0F1CF953009F4B8C008F48DC016
:10045000963009F4EEC0E8CF8A3331F70E94590094
:10046000109294011092CD0182E0A5C0E091940118
:1004700091E09E0F90939401F0E0E057FE4F80834F
:100480000E94590080919401823071F662E080E907
:1004900091E00E94A1018093CF0199279F938F93B0
:1004A0009F928F921F927F921F930F930E945103EE
:1004B000C8010E941B010E9415019091CD018091FD
:1004C000CF01890F8093CD011092940130920001E9
:1004D000E2C0E091940191E09E0F90939401F0E0CE
:1004E000E057FE4F80830E9459002090940194E0D1
:1004F00029129ACF60E180E991E00E94A1018093E6
:10050000CB019093CC019F938F93DF92CF921F9258
:100510007F921F930F930E945103C8010E941B01F9
:100520000E9415018091CB019091CC012091CD01C9
:10053000280F290F2093CD0180789093CC018093D0
:10054000CB019F938F93BF92AF921F927F921F9385
:100550000F930E945103C8010E941B010E941501C4
:10056000109294012092000196C0E091940191E0D4
:100570009E0F90939401F0E0E057FE4F80830E941D
:10058000590080919401823009F04ECF62E080E9F9
:1005900091E00E94A1018093BA019091CD01980F42
:1005A0009093CD01109294011092B901813011F015
:1005B00085E001C086E08093000136CF9091BA01BA
:1005C000911132CFE091940191E09E0F90939401AC
:1005D000F0E0E057FE4F80830E9459008091940123
:1005E000823009F021CF2090B90162E080E991E0EA
:1005F0000E94A101E22DF0E0E554FE4F808390912E
:10060000CD01890F8093CD0123942092B9011092DE
:1006100094018091CF01281207CF87FD07C0E82FF2
:10062000F0E0E554FE4F50828F5FF7CF409200011B
:10063000FBCEE091940191E09E0F90939401F0E045
:10064000E057FE4F80830E945900809194018230D0
:1006500009F0EACE62E080E991E00E94A101809376
:10066000CE018091CD0181958093CD011F928F9312
:10067000FF92EF921F927F921F930F930E9451035C
:10068000C8010E941B010E94150110929401609202
:1006900000010E9415010FB6F894DEBF0FBECDBF5A
:1006A000C3CEAEE0B0E0E7E5F3E00C9420060D89A0
:1006B0001E898F89988D26E02C831A83098397FFE2
:1006C00002C080E090E801979E838D83AE01455E75
:1006D0005F4F698D7A8DCE0101960E9481034D8115
:1006E0005E8157FD0AC02F813885421753070CF4ED
:1006F0009A01F801E20FF31F10822E96E4E00C94A9
:100700003C06ABE0B0E0E7E8F3E00C9412066C01C5
:100710007B018A01FC0117821682838181FFCCC193
:10072000CE0101963C01F6019381F70193FD85917D
:1007300093FF81917F01882309F4BAC1853239F48E
:1007400093FD859193FF81917F01853229F4B60154
:1007500090E00E947805E7CF912C212C312CFFE10D
:10076000F315D8F08B3279F038F4803279F0833297
:10077000A1F4232D20611DC08D3261F0803369F416
:10078000232D216016C0832D8260382EE32DE46076
:100790003E2E2AC0F32DF8601DC037FC2DC020ED81
:1007A000280F2A3040F08E32B9F436FC81C1232D57
:1007B0002064322E19C036FE06C08AE0989E200DB5
:1007C0001124922E11C0EAE02E9E200D1124222E1B
:1007D000F32DF0623F2E08C08C3621F4832D806803
:1007E000382E02C0883641F4F70193FD859193FFBE
:1007F00081917F018111B3CF982F9F7D95549330C4
:1008000028F40C5F1F4F9FE399830DC0833631F0AE
:10081000833771F0833509F059C021C0F801808118
:1008200089830E5F1F4F88248394912C530113C03A
:100830002801F2E04F0E511CF801A080B18036FE75
:1008400003C0692D70E002C06FEF7FEFC5010E9409
:100850006D054C018201F32DFF773F2E16C0280154
:1008600022E0420E511CF801A080B18036FE03C088
:10087000692D70E002C06FEF7FEFC5010E94620535
:100880004C01F32DF0683F2E820133FC1BC0822DFA
:1008900090E088169906B0F4B60180E290E00E94DC
:1008A00078052A94F4CFF50137FC859137FE8191C4
:1008B0005F01B60190E00E94780521102A9421E0A2
:1008C000821A91088114910471F7E8C0843611F0FE
:1008D000893641F5F80137FE07C060817181828158
:1008E00093810C5F1F4F08C060817181072E000C3F
:1008F000880B990B0E5F1F4FF32DFF763F2E97FF4E
:1009000009C090958095709561957F4F8F4F9F4F4F
:10091000F0683F2E2AE030E0A3010E94B405882E43
:10092000861845C0853731F4232D2F7EB22E2AE05C
:1009300030E025C0932D997FB92E8F36C1F018F481
:10094000883579F0B5C0803719F0883721F0B0C00C
:10095000E92FE061BE2EB4FE0DC0FB2DF460BF2E6A
:1009600009C034FE0AC0292F2660B22E06C028E036
:1009700030E005C020E130E002C020E132E0F801C3
:10098000B7FE07C060817181828193810C5F1F4F28
:1009900006C06081718180E090E00E5F1F4FA3016F
:1009A0000E94B405882E8618FB2DFF773F2E36FE59
:1009B0000DC0232D2E7FA22E891458F434FE0BC0B7
:1009C00032FC09C0832D8E7EA82E05C0B82CA32C26
:1009D00003C0B82C01C0B92CA4FE0FC0FE01E80D65
:1009E000F11D8081803321F49A2D997EA92E09C0B2
:1009F000A2FE06C0B394B39404C08A2D867809F091
:100A0000B394A3FC11C0A0FE06C0B21488F4280C55
:100A1000922C9B180EC0B21460F4B60180E290E0F4
:100A20000E947805B394F7CFB21418F42B1802C0C3
:100A3000982C212CA4FE10C0B60180E390E00E9407
:100A40007805A2FE17C0A1FC03C088E790E002C0B1
:100A500088E590E0B6010CC08A2D867859F0A1FE99
:100A600002C08BE201C080E2A7FC8DE2B60190E0FB
:100A70000E947805891438F4B60180E390E00E9462
:100A800078059A94F7CF8A94F301E80DF11D8081DF
:100A9000B60190E00E9478058110F5CF222009F47C
:100AA00042CEB60180E290E00E9478052A94F6CF0B
:100AB000F6018681978102C08FEF9FEF2B96E2E1CE
:100AC0000C942E06FC010590615070400110D8F77F
:100AD000809590958E0F9F1F0895FC016150704086
:100AE00001900110D8F7809590958E0F9F1F089563
:100AF0000F931F93CF93DF93FB01238121FD03C04D
:100B00008FEF9FEF2CC022FF16C0468157812481B2
:100B100035814217530744F4A081B1819D012F5FB5
:100B20003F4F318320838C93268137812F5F3F4F46
:100B30003783268314C08B01EC01FB010084F1850F
:100B4000E02D0995892BE1F6D80116968D919C919F
:100B50001797019617969C938E931697CE01DF9167
:100B6000CF911F910F910895FA01AA27283051F1D2
:100B7000203181F1E8946F936E7F6E5F7F4F8F4FCE
:100B80009F4FAF4FB1E03ED0B4E03CD0670F781F2D
:100B9000891F9A1FA11D680F791F8A1F911DA11D12
:100BA0006A0F711D811D911DA11D20D009F468944B
:100BB0003F912AE0269F11243019305D3193DEF6F3
:100BC000CF010895462F4770405D4193B3E00FD0A9
:100BD000C9F7F6CF462F4F70405D4A3318F0495D94
:100BE00031FD4052419302D0A9F7EACFB4E0A69577
:100BF0009795879577956795BA95C9F70097610599
:100C0000710508959B01AC010A2E069457954795EE
:100C100037952795BA95C9F7620F731F841F951FE3
:100C2000A01D08952F923F924F925F926F927F92F4
:100C30008F929F92AF92BF92CF92DF92EF92FF92EC
:100C40000F931F93CF93DF93CDB7DEB7CA1BDB0B98
:100C50000FB6F894DEBF0FBECDBF09942A8839883D
:100C600048885F846E847D848C849B84AA84B98444
:100C7000C884DF80EE80FD800C811B81AA81B98150
:100C8000CE0FD11D0FB6F894DEBF0FBECDBFED0164
:060C90000895F894FFCF67
:100C960001113C703E202D3E20666C617368696EC2
:100CA60067206D6F6465207C203C616E79206F74CF
:100CB600686572206B65793E202D3E20636F6E74E9
:100CC600696E756520746F20746865206170706C3C
:100CD60069636174696F6E00506C65617365206548
:100CE6006E746572202E68657820636F6465006493
:100CF6006174614C656E6774682025750041646493
:100D06007265737320256875004164647265737338
:100D160020256400436865636B73756D2025750037
:00000001FF
