:100000000C9434000C9451000C9451000C94510049
:100010000C9451000C9451000C9451000C9451001C
:100020000C9451000C9451000C9451000C9451000C
:100030000C9451000C9442010C9451000C9451000A
:100040000C9451000C9451000C948D000C945100B0
:100050000C9451000C9451000C9451000C945100DC
:100060000C9451000C94510011241FBECFEFD8E026
:10007000DEBFCDBF11E0A0E0B1E0E8EFF5E002C0E7
:1000800005900D92A439B107D9F722E0A4E9B1E0B7
:1000900001C01D92A734B207E1F70E949F010C94A2
:1000A000FA020C940000E0ECF0E0908195FD04C0B1
:1000B00090919D019923C9F38093C60008958BE127
:1000C0000E9453008BE50E94530082E30E9453007C
:1000D0008AE40E9453008BE10E9453008BE50E944A
:1000E000530088E40E94530008951092C50087E6EB
:1000F0008093C400E1ECF0E08081886980830E94F5
:100100005F000895CF93CFB7F89483E18093010106
:100110000E945300CFBFCF9108951F920F920FB648
:100120000F9211242F933F934F935F936F937F937D
:100130008F939F93AF93BF93EF93FF938091C600EC
:10014000833121F481E080939D0122C0813119F433
:1001500010929D011DC0E091A001F0E0EF55FE4F0F
:1001600080838091A00190E001968F7190788093B8
:10017000A00180919E018F5F80939E0180919E01DE
:10018000863130F080910101813111F40E948200AA
:10019000FF91EF91BF91AF919F918F917F916F915F
:1001A0005F914F913F912F910F900FBE0F901F9035
:1001B0001895CF93CFB7F89481E1809301010E9405
:1001C0005300CFBFCF910895CF9380919E01882394
:1001D00001F1E0919F01F0E0EF55FE4FC081909159
:1001E0009E01915090939E0120919F0130E02F5FDE
:1001F0003F4F2F71307820939F0190919E019B304B
:1002000050F480910101833141F40E94D9008C2F78
:1002100005C080E003C08C2F01C08C2FCF910895C2
:100220008DE00E9453008AE00E94530008951F93BE
:10023000CF93DF93EC018881882351F010E00E9476
:1002400053001F5FFE01E10FF11D80818111F7CF87
:10025000DF91CF911F9108952FEF81EE94E021500F
:1002600080409040E1F700C00000109281001092A1
:1002700085001092840010926F0082E091E00E944D
:10028000170108951F920F920FB60F9211242F930A
:100290003F934F935F936F937F938F939F93AF930E
:1002A000BF93EF93FF930E942C01FF91EF91BF91B9
:1002B000AF919F918F917F916F915F914F913F91FE
:1002C0002F910F900FBE0F901F901895E2ECF1E068
:1002D00082E492E02FEF2193E817F907E1F7089500
:1002E00010929C010E9466010895662329F1482F0F
:1002F000E82FF92F80E090E0319120ED230F2A3094
:1003000078F02FEB230F263018F429EC230F08C0C8
:100310002FE9230F263018F429EA230F01C0232FD9
:1003200082959295907F9827807F9827822B2E2FF9
:10033000241B261708F3089580E090E008950E949A
:10034000750086E191E00E9417010E941001E1E82A
:10035000F0E08081856080838CED9BE09093850048
:100360008093840081E080936F0078940E94E40081
:100370008823E1F3803711F00E942C0110926F0066
:100380008CE591E00E9417010E9410010E94660115
:10039000C2E4D2E00F2EF6E0EF2EF02D0F2EF5E0A6
:1003A000FF2EF02D11E003E00E94E4008823E1F32A
:1003B000909100019330E1F128F4913061F0923096
:1003C000B1F0F2CF953009F497C008F46EC09630C2
:1003D00009F4DBC0E9CF8A3339F70E945300109249
:1003E0009A011092440282E080930001DDCFE091F7
:1003F0009A0191E09E0F90939A01F0E0EA56FE4F29
:1004000080830E94530080919A01823069F662E0F5
:1004100086E991E00E947501809346029091440222
:10042000890F8093440210929A0100930001BCCF7F
:10043000E0919A0191E09E0F90939A01F0E0EA56C4
:10044000FE4F80830E94530080919A01843009F00E
:10045000ABCF64E086E991E00E947501909343027E
:100460008093420220914402280F290F20934402D6
:100470006C01CC0CCD2CCC1CDD08D1948091940166
:1004800090919501C816D90651F00E947001D09242
:100490009501C092940188818F7780939C0110927E
:1004A0009A0184E0809300017FCFE0919A0191E06E
:1004B0009E0F90939A01F0E0EA56FE4F80830E94CF
:1004C000530080919A01823009F06ECF62E086E994
:1004D00091E00E9475018093C10190914402980FB0
:1004E0009093440210929A01813011F48E2D01C034
:1004F0008F2D8093000158CF9091C101911154CF5D
:10050000E0919A0191E09E0F90939A01F0E0EA56F3
:10051000FE4F80830E94530080919A01823009F03F
:1005200043CFD0909C0162E086E991E00E94750182
:10053000ED2DF0E0EE53FE4F808390914402890F41
:100540008093440280919B018F5F80939B0181E0A7
:100550008D0D80939C0110929A01803859F40E946D
:10056000700180919401909195010196909395016D
:100570008093940190919B0180914602981314CF2F
:1005800010929B01E09200010FCFE0919A0191E05F
:100590009E0F90939A01F0E0EA56FE4F80830E94EE
:1005A000530080919A01823009F0FECE62E086E924
:1005B00091E00E94750180934502909144029195CB
:1005C00090934402891731F083E791E00E9417016C
:1005D000109300018091C101813029F480919C0128
:1005E00081110E94700110929A01109300010E94E3
:0805F0001001DACEF894FFCFF0
:1005F80001115374617274696E672070726F67724B
:10060800616D2E2E2E003C703E202D3E20666C61C2
:100618007368696E67206D6F6465207C203C616E2D
:1006280079206F74686572206B65793E202D3E20B5
:10063800636F6E74696E756520746F2074686520C9
:100648006170706C69636174696F6E00506C65618C
:10065800736520656E746572202E68657820636FF7
:10066800646500436865636B73756D206D69736DB0
:10067800617463682E20506C6561736520526573E0
:040688006574210074
:00000001FF
