:100000000C9434000C9451000C9451000C94510049
:100010000C9451000C9451000C9451000C9451001C
:100020000C9451000C9451000C9451000C9451000C
:100030000C9451000C943E010C9451000C9451000E
:100040000C9451000C9451000C948D000C945100B0
:100050000C9451000C9451000C9451000C945100DC
:100060000C9451000C94510011241FBECFEFD8E026
:10007000DEBFCDBF12E0A0E0B1E0EEECFDE002C0DB
:1000800005900D92A430B107D9F722E0A4E0B2E0C8
:1000900001C01D92A43BB207E1F70E9462020C94DA
:1000A000E5060C940000E0ECF0E0908195FD04C0C2
:1000B00090910A029923C9F38093C60008958BE1B9
:1000C0000E9453008BE50E94530082E30E9453007C
:1000D0008AE40E9453008BE10E9453008BE50E944A
:1000E000530088E40E94530008951092C50087E6EB
:1000F0008093C400E1ECF0E08081886980830E94F5
:100100005F000895CF93CFB7F89483E18093010106
:100110000E945300CFBFCF9108951F920F920FB648
:100120000F9211242F933F934F935F936F937F937D
:100130008F939F93AF93BF93EF93FF938091C600EC
:10014000833121F481E080930A0222C0813119F4C5
:1001500010920A021DC0E0910D02F0E0E25FFD4F37
:10016000808380910D0290E001968F71907880934A
:100170000D0280910B028F5F80930B0280910B0226
:10018000863130F080910101813111F40E948200AA
:10019000FF91EF91BF91AF919F918F917F916F915F
:1001A0005F914F913F912F910F900FBE0F901F9035
:1001B0001895CF93CFB7F89481E1809301010E9405
:1001C0005300CFBFCF910895CF9380910B02882326
:1001D00001F1E0910C02F0E0E25FFD4FC0819091EF
:1001E0000B02915090930B0220910C0230E02F5F94
:1001F0003F4F2F71307820930C0290910B029B306F
:1002000050F480910101833141F40E94D9008C2F78
:1002100005C080E003C08C2F01C08C2FCF910895C2
:100220008DE00E9453008AE00E94530008951F93BE
:10023000CF93DF93EC018881882351F010E00E9476
:1002400053001F5FFE01E10FF11D80818111F7CF87
:10025000DF91CF911F9108952FEF81EE94E021500F
:1002600080409040E1F700C00000109281001092A1
:1002700085001092840010926F0008951F920F92D3
:100280000FB60F9211242F933F934F935F936F9369
:100290007F938F939F93AF93BF93EF93FF930E94AE
:1002A0002C01FF91EF91BF91AF919F918F917F9121
:1002B0006F915F914F913F912F910F900FBE0F90D3
:1002C0001F9018956F927F928F929F92AF92BF92DC
:1002D000CF92DF92EF92FF920F931F93CF93DF9312
:1002E000CDB7DEB7C85CD1090FB6F894DEBF0FBE3C
:1002F000CDBF80912E02813009F069C08091090242
:100300001F928F9382E091E09F938F931F9288ECCE
:100310008F938E010F5F1F4F1F930F930E94060450
:10032000C8010E941701D09009020FB6F894DEBFF1
:100330000FBECDBFDD200CF44AC0BB24BA940F2EF3
:10034000F0E1EF2EF1E0FF2EF02D0F2EF8ECCF2E86
:10035000F02DED2DF0E0E15DFD4FB0821F92DF92B8
:10036000FF92EF921F92CF921F930F930E94060469
:10037000C8010E9417010E941001D3940FB6F8948F
:10038000DEBF0FBECDBF2CF722C0702E7818F8014B
:1003900081918F011F928F93DF92CF921F926F9264
:1003A000FF92EF920E940604C7010E941701872D59
:1003B0008F700FB6F894DEBF0FBECDBF11F40E9450
:1003C00010010A151B0509F7109209023BC00E9493
:1003D00010018091B0028F938091AF028F9380E2E1
:1003E00091E09F938F931F9288EC8F938E010F5F04
:1003F0001F4F1F930F930E940604C8010E9417010C
:100400000E9410010F2EFFE28F2EF2E09F2EF02DA2
:100410000F2EFFEAAF2EF2E0BF2EF02D0FB6F894AC
:10042000DEBF0FBECDBF84010F2EFCE1CF2EF1E069
:10043000DF2EF02D0F2EF8EC6F2EF02DFE013196F1
:100440007F01A3CFC853DF4F0FB6F894DEBF0FBEB6
:10045000CDBFDF91CF911F910F91FF90EF90DF9073
:10046000CF90BF90AF909F908F907F906F900895A6
:10047000662329F1482FE82FF92F80E090E0319191
:1004800020ED230F2A3078F02FEB230F263018F4BD
:1004900029EC230F08C02FE9230F263018F429EA8E
:1004A000230F01C0232F82959295907F9827807FFC
:1004B0009827822B2E2F241B261708F3089580E0FF
:1004C00090E00895CF93DF93CDB7DEB7C85CD10934
:1004D0000FB6F894DEBF0FBECDBF0E94750081E35A
:1004E00091E00E9417010E941001E1E8F0E0808194
:1004F000856080838CED9BE09093850080938400E1
:1005000081E080936F0078940E94E4008823E1F3F7
:10051000803741F00E942C0187E791E00E9417018B
:100520000E94100110926F008DE891E00E94170167
:100530000E9410010F2EF6E06F2EF02D0F2EF5E029
:100540008F2EF02D0F2EF7EDEF2EF1E0FF2EF02D78
:100550000F2EF8EC9F2EF02D8E010F5F1F4FAA2457
:10056000A3940F2EF4EACF2EF1E0DF2EF02D0F2E04
:10057000FBE47F2EF02D0F2EF3E0BF2EF02D0E9416
:10058000E4008823E1F3909100019330E1F128F435
:10059000913061F09230B1F0F2CF953009F485C01E
:1005A00008F45CC0963009F4B8C0E9CF8A3339F753
:1005B0000E945300109208021092B10282E08093D0
:1005C0000001DDCFE091080291E09E0F90930802B8
:1005D000F0E0EC5FFD4F80830E94530080910802A1
:1005E000823069F662E084E092E00E9438028093F3
:1005F000B3029091B102890F8093B1021092080268
:10060000B0920001BCCFE091080291E09E0F909360
:100610000802F0E0EC5FFD4F80830E945300809160
:100620000802843009F0ABCF64E084E092E00E94DD
:1006300038022091B102280F290F2093B102880FB0
:10064000892F881F990B91959093B0028093AF02E8
:100650001092080284E08093000191CFE09108029B
:1006600091E09E0F90930802F0E0EC5FFD4F8083D5
:100670000E94530080910802823009F080CF62E02E
:1006800084E092E00E94380280932E029091B102A1
:10069000980F9093B10210920802813011F4862DC8
:1006A00001C0882D809300016ACF90912E02911194
:1006B00066CFE091080291E09E0F90930802F0E06F
:1006C000EC5FFD4F80830E945300809108028230CE
:1006D00009F055CF5090090262E084E092E00E9458
:1006E0003802E52DF0E0E15DFD4F80839091B1028D
:1006F000890F8093B10281E0850D809309021092E9
:100700000802852D8F7055245394580E8091B302A2
:10071000581235CF6092000132CFE091080291E08B
:100720009E0F90930802F0E0EC5FFD4F80830E94E3
:10073000530080910802823009F021CF62E084E00A
:1007400092E00E9438028093B2022091B10221957A
:100750002093B102281719F199279F938F931F9225
:100760002F93DF92CF921F927F921F930F930E943D
:100770000604C8010E94170186EB91E00E94170150
:100780002AEA36EE86E991E02150304080409040E0
:10079000D9F700000FB6F894DEBF0FBECDBF809131
:1007A0000902803821F080912E02813011F40E94DC
:1007B00062010E941001809109021F928F93809123
:1007C0002E021F928F938091B0028F938091AF027F
:1007D0008F938091B3021F928F93FF92EF921F929B
:1007E0009F921F930F930E940604C8010E94170155
:1007F0000E94100110920802A09200010E941001B4
:100800000FB6F894DEBF0FBECDBFB9CEAEE0B0E0FC
:10081000ECE0F4E00C94BC060D891E898F89988D5C
:1008200026E02C831A83098397FF02C080E090E8BA
:1008300001979E838D83AE01455E5F4F698D7A8DF2
:10084000CE0101960E9436044D815E8157FD0AC09B
:100850002F813885421753070CF49A01F801E20FF3
:10086000F31F10822E96E4E00C94D806ACE0B0E0C2
:10087000ECE3F4E00C94AE067C016B018A01FC0110
:1008800017821682838181FFBDC1CE0101964C0182
:10089000F7019381F60193FD859193FF81916F019B
:1008A000882309F4ABC1853239F493FD859193FF18
:1008B00081916F01853229F4B70190E00E941E06F4
:1008C000E7CF512C312C20E02032A0F48B3269F09C
:1008D00030F4803259F0833269F420612CC08D32BB
:1008E00039F0803339F4216026C02260246023C0AF
:1008F000286021C027FD27C030ED380F3A3078F44A
:1009000026FF06C0FAE05F9E300D1124532E13C05F
:100910008AE0389E300D1124332E20620CC08E32B6
:1009200021F426FD6BC1206406C08C3611F42068CA
:1009300002C0883641F4F60193FD859193FF8191C1
:100940006F018111C1CF982F9F7D9554933028F46A
:100950000C5F1F4FFFE3F9830DC0833631F08337FF
:1009600071F0833509F05BC022C0F8018081898372
:100970000E5F1F4F44244394512C540115C038017D
:10098000F2E06F0E711CF801A080B18026FF03C059
:10099000652D70E002C06FEF7FEFC5012C870E94CC
:1009A00013062C0183012C852F77222E17C03801C6
:1009B000F2E06F0E711CF801A080B18026FF03C029
:1009C000652D70E002C06FEF7FEFC5012C870E949C
:1009D00008062C012C852068222E830123FC1BC0D5
:1009E000832D90E048165906B0F4B70180E290E0FC
:1009F0000E941E063A94F4CFF50127FC859127FE4C
:100A000081915F01B70190E00E941E0631103A9477
:100A1000F1E04F1A51084114510471F7E5C08436D2
:100A200011F0893639F5F80127FF07C0608171811F
:100A3000828193810C5F1F4F08C06081718188277C
:100A400077FD8095982F0E5F1F4F2F76B22E97FF60
:100A500009C090958095709561957F4F8F4F9F4FFE
:100A60002068B22E2AE030E0A4010E945006A82E91
:100A7000A81844C0853729F42F7EB22E2AE030E032
:100A800025C0F22FF97FBF2E8F36C1F018F48835BC
:100A900079F0B4C0803719F0883721F0AFC02F2F1C
:100AA0002061B22EB4FE0DC08B2D8460B82E09C01B
:100AB00024FF0AC09F2F9660B92E06C028E030E0C0
:100AC00005C020E130E002C020E132E0F801B7FECD
:100AD00007C060817181828193810C5F1F4F06C0C6
:100AE0006081718180E090E00E5F1F4FA4010E9441
:100AF0005006A82EA818FB2DFF77BF2EB6FE0BC000
:100B00002B2D2E7FA51450F4B4FE0AC0B2FC08C0F1
:100B10002B2D2E7E05C07A2C2B2D03C07A2C01C0E4
:100B2000752C24FF0DC0FE01EA0DF11D808180337C
:100B300011F4297E09C022FF06C07394739404C087
:100B4000822F867809F0739423FD13C020FF06C01E
:100B50005A2C731418F4530C5718732C731468F42C
:100B6000B70180E290E02C870E941E0673942C85CA
:100B7000F5CF731410F4371801C0312C24FF12C0C4
:100B8000B70180E390E02C870E941E062C8522FF8F
:100B900017C021FF03C088E590E002C088E790E01D
:100BA000B7010CC0822F867859F021FD02C080E287
:100BB00001C08BE227FD8DE2B70190E00E941E0686
:100BC000A51438F4B70180E390E00E941E065A9401
:100BD000F7CFAA94F401EA0DF11D8081B70190E0EE
:100BE0000E941E06A110F5CF332009F451CEB701A3
:100BF00080E290E00E941E063A94F6CFF7018681CB
:100C0000978102C08FEF9FEF2C96E2E10C94CA0609
:100C1000FC010590615070400110D8F780959095C7
:100C20008E0F9F1F0895FC016150704001900110CC
:100C3000D8F7809590958E0F9F1F08950F931F935F
:100C4000CF93DF93182F092FEB018B8181FD03C018
:100C50008FEF9FEF20C082FF10C04E815F812C81FB
:100C60003D81421753077CF4E881F9819F012F5F92
:100C70003F4F39832883108306C0E885F985812F8B
:100C80000995892B29F72E813F812F5F3F4F3F83A5
:100C90002E83812F902FDF91CF911F910F91089577
:100CA000FA01AA27283051F1203181F1E8946F939D
:100CB0006E7F6E5F7F4F8F4F9F4FAF4FB1E03ED043
:100CC000B4E03CD0670F781F891F9A1FA11D680FE1
:100CD000791F8A1F911DA11D6A0F711D811D911D14
:100CE000A11D20D009F468943F912AE0269F112489
:100CF0003019305D3193DEF6CF010895462F4770ED
:100D0000405D4193B3E00FD0C9F7F6CF462F4F7047
:100D1000405D4A3318F0495D31FD4052419302D0A5
:100D2000A9F7EACFB4E0A69597958795779567954B
:100D3000BA95C9F700976105710508959B01AC014B
:100D40000A2E06945795479537952795BA95C9F772
:100D5000620F731F841F951FA01D08952F923F924D
:100D60004F925F926F927F928F929F92AF92BF92BB
:100D7000CF92DF92EF92FF920F931F93CF93DF9367
:100D8000CDB7DEB7CA1BDB0B0FB6F894DEBF0FBEC4
:100D9000CDBF09942A88398848885F846E847D8411
:100DA0008C849B84AA84B984C884DF80EE80FD8013
:100DB0000C811B81AA81B981CE0FD11D0FB6F89489
:0E0DC000DEBF0FBECDBFED010895F894FFCF4A
:100DCE00011144617461496E6465782025752000B7
:100DDE0053657474696E6720257520002578200090
:100DEE005072696E74696E67207061676520256444
:100DFE00003C703E202D3E20666C617368696E6704
:100E0E00206D6F6465207C203C616E79206F746864
:100E1E006572206B65793E202D3E20636F6E74697E
:100E2E006E756520746F20746865206170706C69D2
:100E3E00636174696F6E00492077617320696E205B
:100E4E0072756E50726F6772616D6D2100506C65B8
:100E5E0061736520656E746572202E6865782063F7
:100E6E006F64650063616C633A2025752C206163A5
:100E7E00743A20257500436865636B73756D206D3C
:100E8E0069736D617463682E20506C6561736520A3
:100E9E00526573657421004C656E3A2025752C20C1
:100EAE004164723A2025752C205265635479706521
:100EBE003A2025752C2044617461496E6465783A38
:040ECE002025750066
:00000001FF
