:100000000C9453000C9470000C9470000C947000CD
:100010000C9470000C9470000C9470000C947000A0
:100020000C9470000C9470000C9470000C94700090
:100030000C9470000C9470000C9470000C94700080
:100040000C9470000C9470000C94AF000C94700031
:100050000C9470000C9470000C9470000C94700060
:100060000C9470000C947000506F74656E74696F1E
:100070006D657465723A200054656D7065726174C7
:100080007572653A20002D2D2D2D2D2D2D2D2D2D08
:100090002D2D2D2D2D2D2D2D0041444320526573E6
:1000A000756C7473000011241FBECFEFD8E0DEBF63
:1000B000CDBF11E0A0E0B1E0E6ECFCE002C00590AD
:1000C0000D92AE30B107D9F721E0AEE0B1E001C04A
:1000D0001D92A233B207E1F70E9470010C946106F1
:1000E0000C94000090910F0181E0911180E008953F
:1000F0009091C00095FD04C090910E019923C1F329
:100100008093C60008958BE10E9478008BE50E94E1
:10011000780082E30E9478008AE40E9478008BE1F4
:100120000E9478008BE50E94780088E40C947800A7
:100130001092C50087E68093C400E1ECF0E0808176
:10014000886980830C948300CF93CFB7F89483E1C0
:10015000809300010E947800CFBFCF9108951F9235
:100160000F920FB60F9211242F933F934F935F93EB
:100170006F937F938F939F93AF93BF93EF93FF936F
:100180008091C600833121F481E080930E0122C06A
:10019000813119F410920E011DC0E0911101F0E0BF
:1001A000EE5EFE4F80838091110190E001968F7189
:1001B00099278093110180910F018F5F80930F0128
:1001C00080910F01863130F080910001813111F46E
:1001D0000E94A400FF91EF91BF91AF919F918F91E9
:1001E0007F916F915F914F913F912F910F900FBE33
:1001F0000F901F901895CF93CFB7F89481E180931B
:1002000000010E947800CFBFCF910895CF938091D5
:100210000F018823F1F0E0911001F0E0EE5EFE4F57
:10022000C08180910F01815080930F018091100156
:1002300090E001968F7199278093100180910F01B2
:100240008B3030F480910001833111F40E94FB0067
:100250008C2FCF910895E4E6F0E080818E7F80833B
:10026000EAE7F0E080818068808380818760808316
:1002700008959C01FB0190917C00907F90937C00FD
:1002800090917C00922B90937C0080917C00283090
:10029000310511F4806C06C08F7780937C008091CB
:1002A0007C00806480937C008FE19EE40197F1F7ED
:1002B00000C0000080917A00806480937A00809171
:1002C0007A0086FDFCCF118210828091780090E048
:1002D0009183808320917900922B9183808308956C
:1002E000CF93DF93CDB7DEB766970FB6F894DEBF36
:1002F0000FBECDBF1E8A1D8A8E010F5F1F4F84E186
:10030000F80111928A95E9F70E9498000E942B014A
:10031000789481E0E82E81E0F82E94E1B92E28E06F
:10032000C22E21E0D22EA12CEA2DF0E0E756FF4F9D
:100330008491882321F00E947800A394F5CF8DE06A
:100340000E9478008AE00E947800A12CEA2DF0E05B
:10035000EA57FF4F8491882321F00E947800A394EC
:10036000F5CF8DE00E9478008AE00E947800A12CF1
:10037000EA2DF0E0E858FF4F8491882321F00E9495
:100380007800A394F5CFBE016B5E7F4F88E090E0CC
:100390000E9439018D899E89805291409E8B8D8B60
:1003A0009F938F93FF92EF921F92BF921F930F9391
:1003B0000E9469030FB6F894DEBF0FBECDBFA12C1B
:1003C000F801EA0DF11D8081882321F00E94780058
:1003D000A394F6CF8DE00E9478008AE00E94780016
:1003E000A12CEA2DF0E0E859FF4F8491882321F0F9
:1003F0000E947800A394F5CFBE016B5E7F4F82E030
:1004000090E00E9439016D897E8980E090E00E9431
:100410006E0220E030E44CE950E40E94D4020E94D5
:100420003F026D8B7E8B7F936F93DF92CF921F92F3
:10043000BF921F930F930E9469030FB6F894DEBF1B
:100440000FBECDBFA12CF801EA0DF11D80818823DC
:1004500021F00E947800A394F6CF8DE00E947800EE
:100460008AE00E947800FFEF23ED80E3F150204006
:100470008040E1F700C000000E94830054CF0E943A
:10048000B30288F09F5798F0B92F9927B751B0F071
:10049000E1F0660F771F881F991F1AF0BA95C9F708
:1004A00014C0B13091F00E94CD02B1E008950C94D7
:1004B000CD02672F782F8827B85F39F0B93FCCF38A
:1004C000869577956795B395D9F73EF49095809585
:1004D000709561957F4F8F4F9F4F0895E89409C0A5
:1004E00097FB3EF490958095709561957F4F8F4F67
:1004F0009F4F9923A9F0F92F96E9BB279395F6957D
:10050000879577956795B795F111F8CFFAF4BB0FFA
:1005100011F460FF1BC06F5F7F4F8F4F9F4F16C05E
:10052000882311F096E911C0772321F09EE8872FE8
:10053000762F05C0662371F096E8862F70E060E0A4
:100540002AF09A95660F771F881FDAF7880F96951D
:10055000879597F9089557FD9058440F551F59F006
:100560005F3F71F04795880F97FB991F61F09F3FA0
:1005700079F087950895121613061406551FF2CFC9
:100580004695F1DF08C0161617061806991FF1CF19
:1005900086957105610508940895E894BB27662740
:1005A0007727CB0197F908950E94E7020C9458032E
:1005B0000E944A0338F00E94510320F0952311F065
:1005C0000C9441030C94470311240C94CE020E9416
:1005D000AB0270F3959FC1F3950F50E0551F629FDA
:1005E000F001729FBB27F00DB11D639FAA27F00D8C
:1005F000B11DAA1F649F6627B00DA11D661F829FB3
:100600002227B00DA11D621F739FB00DA11D621F97
:10061000839FA00D611D221F749F3327A00D611DB4
:10062000231F849F600D211D822F762F6A2F112496
:100630009F5750409AF0F1F088234AF0EE0FFF1FC9
:10064000BB1F661F771F881F91505040A9F79E3F20
:10065000510580F00C9441030C94CE025F3FE4F30B
:10066000983ED4F3869577956795B795F795E79576
:100670009F5FC1F7FE2B880F911D9695879597F97F
:10068000089597F99F6780E870E060E008959FEF14
:1006900080EC089500240A94161617061806090619
:1006A000089500240A9412161306140605060895E8
:1006B000092E0394000C11F4882352F0BB0F40F470
:1006C000BF2B11F460FF04C06F5F7F4F8F4F9F4FB0
:1006D0000895AEE0B0E0EFE6F3E00C9438060D8943
:1006E0001E898F89988D26E02C831A83098397FFB2
:1006F00002C080E090E801979E838D83AE01455E45
:100700005F4F698D7A8DCE0101960E9499034D81CC
:100710005E8157FD0AC02F813885421753070CF4BC
:100720009A01F801E20FF31F10822E96E4E00C9478
:100730005406ABE0B0E0EFE9F3E00C942A066C015C
:100740007B018A01FC0117821682838181FFCCC163
:10075000CE0101963C01F6019381F70193FD85914D
:1007600093FF81917F01882309F4BAC1853239F45E
:1007700093FD859193FF81917F01853229F4B60124
:1007800090E00E949005E7CF912C212C312CFFE1C5
:10079000F315D8F08B3279F038F4803279F0833267
:1007A000A1F4232D20611DC08D3261F0803369F4E6
:1007B000232D216016C0832D8260382EE32DE46046
:1007C0003E2E2AC0F32DF8601DC037FC2DC020ED51
:1007D000280F2A3040F08E32B9F436FC81C1232D27
:1007E0002064322E19C036FE06C08AE0989E200D85
:1007F0001124922E11C0EAE02E9E200D1124222EEB
:10080000F32DF0623F2E08C08C3621F4832D8068D2
:10081000382E02C0883641F4F70193FD859193FF8D
:1008200081917F018111B3CF982F9F7D9554933093
:1008300028F40C5F1F4F9FE399830DC0833631F07E
:10084000833771F0833509F059C021C0F8018081E8
:1008500089830E5F1F4F88248394912C530113C00A
:100860002801F2E04F0E511CF801A080B18036FE45
:1008700003C0692D70E002C06FEF7FEFC5010E94D9
:1008800085054C018201F32DFF773F2E16C028010C
:1008900022E0420E511CF801A080B18036FE03C058
:1008A000692D70E002C06FEF7FEFC5010E947A05ED
:1008B0004C01F32DF0683F2E820133FC1BC0822DCA
:1008C00090E088169906B0F4B60180E290E00E94AC
:1008D00090052A94F4CFF50137FC859137FE81917C
:1008E0005F01B60190E00E94900521102A9421E05A
:1008F000821A91088114910471F7E8C0843611F0CE
:10090000893641F5F80137FE07C060817181828127
:1009100093810C5F1F4F08C060817181072E000C0E
:10092000880B990B0E5F1F4FF32DFF763F2E97FF1D
:1009300009C090958095709561957F4F8F4F9F4F1F
:10094000F0683F2E2AE030E0A3010E94CC05882EFB
:10095000861845C0853731F4232D2F7EB22E2AE02C
:1009600030E025C0932D997FB92E8F36C1F018F451
:10097000883579F0B5C0803719F0883721F0B0C0DC
:10098000E92FE061BE2EB4FE0DC0FB2DF460BF2E3A
:1009900009C034FE0AC0292F2660B22E06C028E006
:1009A00030E005C020E130E002C020E132E0F80193
:1009B000B7FE07C060817181828193810C5F1F4FF8
:1009C00006C06081718180E090E00E5F1F4FA3013F
:1009D0000E94CC05882E8618FB2DFF773F2E36FE11
:1009E0000DC0232D2E7FA22E891458F434FE0BC087
:1009F00032FC09C0832D8E7EA82E05C0B82CA32CF6
:100A000003C0B82C01C0B92CA4FE0FC0FE01E80D34
:100A1000F11D8081803321F49A2D997EA92E09C081
:100A2000A2FE06C0B394B39404C08A2D867809F060
:100A3000B394A3FC11C0A0FE06C0B21488F4280C25
:100A4000922C9B180EC0B21460F4B60180E290E0C4
:100A50000E949005B394F7CFB21418F42B1802C07B
:100A6000982C212CA4FE10C0B60180E390E00E94D7
:100A70009005A2FE17C0A1FC03C088E790E002C069
:100A800088E590E0B6010CC08A2D867859F0A1FE69
:100A900002C08BE201C080E2A7FC8DE2B60190E0CB
:100AA0000E949005891438F4B60180E390E00E941A
:100AB00090059A94F7CF8A94F301E80DF11D808197
:100AC000B60190E00E9490058110F5CF222009F434
:100AD00042CEB60180E290E00E9490052A94F6CFC3
:100AE000F6018681978102C08FEF9FEF2B96E2E19E
:100AF0000C944606FC010590615070400110D8F737
:100B0000809590958E0F9F1F0895FC016150704055
:100B100001900110D8F7809590958E0F9F1F089532
:100B20000F931F93CF93DF93FB01238121FD03C01C
:100B30008FEF9FEF2CC022FF16C046815781248182
:100B400035814217530744F4A081B1819D012F5F85
:100B50003F4F318320838C93268137812F5F3F4F16
:100B60003783268314C08B01EC01FB010084F185DF
:100B7000E02D0995892BE1F6D80116968D919C916F
:100B80001797019617969C938E931697CE01DF9137
:100B9000CF911F910F910895FA01AA27283051F1A2
:100BA000203181F1E8946F936E7F6E5F7F4F8F4F9E
:100BB0009F4FAF4FB1E03ED0B4E03CD0670F781FFD
:100BC000891F9A1FA11D680F791F8A1F911DA11DE2
:100BD0006A0F711D811D911DA11D20D009F468941B
:100BE0003F912AE0269F11243019305D3193DEF6C3
:100BF000CF010895462F4770405D4193B3E00FD079
:100C0000C9F7F6CF462F4F70405D4A3318F0495D63
:100C100031FD4052419302D0A9F7EACFB4E0A69546
:100C20009795879577956795BA95C9F70097610568
:100C3000710508959B01AC010A2E069457954795BE
:100C400037952795BA95C9F7620F731F841F951FB3
:100C5000A01D08952F923F924F925F926F927F92C4
:100C60008F929F92AF92BF92CF92DF92EF92FF92BC
:100C70000F931F93CF93DF93CDB7DEB7CA1BDB0B68
:100C80000FB6F894DEBF0FBECDBF09942A8839880D
:100C900048885F846E847D848C849B84AA84B98414
:100CA000C884DF80EE80FD800C811B81AA81B98120
:100CB000CE0FD11D0FB6F894DEBF0FBECDBFED0134
:060CC0000895F894FFCF37
:0E0CC60011256420C2B043002564206D560045
:00000001FF
